{
  "contractName": "StateStore",
  "abi": [
    {
      "inputs": [],
      "payable": false,
      "stateMutability": "nonpayable",
      "type": "constructor"
    },
    {
      "constant": false,
      "inputs": [
        {
          "name": "_name",
          "type": "string"
        },
        {
          "name": "_state",
          "type": "uint256"
        }
      ],
      "name": "saveUserState",
      "outputs": [],
      "payable": false,
      "stateMutability": "nonpayable",
      "type": "function"
    },
    {
      "constant": true,
      "inputs": [
        {
          "name": "_addr",
          "type": "address"
        }
      ],
      "name": "readUserState",
      "outputs": [
        {
          "name": "_name",
          "type": "string"
        },
        {
          "name": "_state",
          "type": "uint256"
        }
      ],
      "payable": false,
      "stateMutability": "view",
      "type": "function"
    },
    {
      "constant": true,
      "inputs": [],
      "name": "readUsersLog",
      "outputs": [
        {
          "name": "_addr",
          "type": "address[]"
        }
      ],
      "payable": false,
      "stateMutability": "view",
      "type": "function"
    },
    {
      "constant": true,
      "inputs": [],
      "name": "isActive",
      "outputs": [
        {
          "name": "",
          "type": "bool"
        }
      ],
      "payable": false,
      "stateMutability": "view",
      "type": "function"
    },
    {
      "constant": false,
      "inputs": [
        {
          "name": "_flag",
          "type": "bool"
        }
      ],
      "name": "setActive",
      "outputs": [],
      "payable": false,
      "stateMutability": "nonpayable",
      "type": "function"
    }
  ],
  "bytecode": "0x608060405234801561001057600080fd5b5060008060006101000a81548160ff0219169083151502179055506106d68061003a6000396000f30060806040526004361061006d576000357c0100000000000000000000000000000000000000000000000000000000900463ffffffff168063183e39e71461007257806322f3e2d4146100de57806336b3e02f1461010d578063acec338a146101d0578063d6f1a402146101ff575b600080fd5b34801561007e57600080fd5b50610087610244565b6040518080602001828103825283818151815260200191508051906020019060200280838360005b838110156100ca5780820151818401526020810190506100af565b505050509050019250505060405180910390f35b3480156100ea57600080fd5b506100f36102d2565b604051808215151515815260200191505060405180910390f35b34801561011957600080fd5b5061014e600480360381019080803573ffffffffffffffffffffffffffffffffffffffff1690602001909291905050506102e8565b6040518080602001838152602001828103825284818151815260200191508051906020019080838360005b83811015610194578082015181840152602081019050610179565b50505050905090810190601f1680156101c15780820380516001836020036101000a031916815260200191505b50935050505060405180910390f35b3480156101dc57600080fd5b506101fd600480360381019080803515159060200190929190505050610403565b005b34801561020b57600080fd5b5061024260048036038101908080359060200190820180359060200191909192939192939080359060200190929190505050610485565b005b606060018054806020026020016040519081016040528092919081815260200182805480156102c857602002820191906000526020600020905b8160009054906101000a900473ffffffffffffffffffffffffffffffffffffffff1673ffffffffffffffffffffffffffffffffffffffff168152602001906001019080831161027e575b5050505050905090565b60008060009054906101000a900460ff16905090565b606060006102f46105eb565b600260008573ffffffffffffffffffffffffffffffffffffffff1673ffffffffffffffffffffffffffffffffffffffff168152602001908152602001600020604080519081016040529081600082018054600181600116156101000203166002900480601f0160208091040260200160405190810160405280929190818152602001828054600181600116156101000203166002900480156103d75780601f106103ac576101008083540402835291602001916103d7565b820191906000526020600020905b8154815290600101906020018083116103ba57829003601f168201915b505050505081526020016001820154815250509050806000015181602001518191509250925050915091565b806000806101000a81548160ff02191690831515021790555060013390806001815401808255809150509060018203906000526020600020016000909192909190916101000a81548173ffffffffffffffffffffffffffffffffffffffff021916908373ffffffffffffffffffffffffffffffffffffffff1602179055505050565b606083838080601f016020809104026020016040519081016040528093929190818152602001838380828437820191505050505050905060008151111515610535576040517f08c379a00000000000000000000000000000000000000000000000000000000081526004018080602001828103825260158152602001807f6e616d652063616e6e6f7420626520656d7074792e000000000000000000000081525060200191505060405180910390fd5b604080519081016040528085858080601f016020809104026020016040519081016040528093929190818152602001838380828437820191505050505050815260200183815250600260003373ffffffffffffffffffffffffffffffffffffffff1673ffffffffffffffffffffffffffffffffffffffff16815260200190815260200160002060008201518160000190805190602001906105d7929190610605565b506020820151816001015590505050505050565b604080519081016040528060608152602001600081525090565b828054600181600116156101000203166002900490600052602060002090601f016020900481019282601f1061064657805160ff1916838001178555610674565b82800160010185558215610674579182015b82811115610673578251825591602001919060010190610658565b5b5090506106819190610685565b5090565b6106a791905b808211156106a357600081600090555060010161068b565b5090565b905600a165627a7a72305820a14ce377084da50f10c25ce2820f413a593f4ead715db5361d13c9b7b65f434d0029",
  "source": "pragma solidity ^0.4.24;\n\ncontract StateStore\n{  \n\n    struct User\n    {\n        string name;\n        uint state;\n    }\n\n    bool active;\n    address[] usersLog;\n    mapping(address => User) userStates;\n \n    constructor() public{\n        active = false;\n    }\n\n    function saveUserState(string _name, uint _state) external{\n        bytes memory name = bytes(_name);\n        require(name.length > 0, \"name cannot be empty.\");\n        userStates[msg.sender] = User(_name, _state);\n    }\n\n    function readUserState(address _addr) external view returns(string _name, uint _state){\n        User memory user = userStates[_addr];\n\n        return (user.name, user.state); \n    }\n\n    function readUsersLog() external view returns (address[] _addr){\n        return usersLog;\n    }\n\n    function isActive() external view returns(bool){\n        return active;\n    }\n\n    function setActive(bool _flag) external{\n        active = _flag;\n        usersLog.push(msg.sender);\n    }\n }",
  "sourcePath": "/Users/orion/_blockchain/smartcontract-demo/contracts/StateStore.sol",
  "compiler": {
    "name": "solc",
    "version": "0.4.24+commit.e67f0147.Emscripten.clang"
  },
  "schemaVersion": "2.0.1",
  "updatedAt": "2018-08-28T13:31:44.083Z"
}